{
  "_format": "hh-sol-artifact-1",
  "contractName": "VibinPortal",
  "sourceName": "contracts/VibinPortal.sol",
  "abi": [
    {
      "inputs": [],
      "stateMutability": "nonpayable",
      "type": "constructor"
    },
    {
      "inputs": [],
      "name": "getUserCount",
      "outputs": [
        {
          "internalType": "uint256",
          "name": "",
          "type": "uint256"
        }
      ],
      "stateMutability": "view",
      "type": "function"
    },
    {
      "inputs": [],
      "name": "getVibes",
      "outputs": [
        {
          "components": [
            {
              "internalType": "address",
              "name": "owner",
              "type": "address"
            },
            {
              "internalType": "string",
              "name": "message",
              "type": "string"
            },
            {
              "internalType": "uint256",
              "name": "timestamp",
              "type": "uint256"
            }
          ],
          "internalType": "struct VibinPortal.Vibe[]",
          "name": "",
          "type": "tuple[]"
        }
      ],
      "stateMutability": "view",
      "type": "function"
    },
    {
      "inputs": [],
      "name": "hasJoined",
      "outputs": [
        {
          "internalType": "bool",
          "name": "",
          "type": "bool"
        }
      ],
      "stateMutability": "view",
      "type": "function"
    },
    {
      "inputs": [
        {
          "internalType": "string",
          "name": "_username",
          "type": "string"
        }
      ],
      "name": "join",
      "outputs": [
        {
          "internalType": "bool",
          "name": "",
          "type": "bool"
        }
      ],
      "stateMutability": "nonpayable",
      "type": "function"
    },
    {
      "inputs": [
        {
          "internalType": "string",
          "name": "_message",
          "type": "string"
        }
      ],
      "name": "vibe",
      "outputs": [],
      "stateMutability": "nonpayable",
      "type": "function"
    }
  ],
  "bytecode": "0x60a06040523480156200001157600080fd5b506200005d6040518060400160405280600e81526020017f436f6e7374727563746f722e2e2e0000000000000000000000000000000000008152506200009a60201b620009d21760201c565b3373ffffffffffffffffffffffffffffffffffffffff1660808173ffffffffffffffffffffffffffffffffffffffff1660601b815250506200022e565b6200013a81604051602401620000b19190620001a7565b6040516020818303038152906040527f41304fac000000000000000000000000000000000000000000000000000000007bffffffffffffffffffffffffffffffffffffffffffffffffffffffff19166020820180517bffffffffffffffffffffffffffffffffffffffffffffffffffffffff83818316178352505050506200013d60201b60201c565b50565b60008151905060006a636f6e736f6c652e6c6f679050602083016000808483855afa5050505050565b60006200017382620001cb565b6200017f8185620001d6565b935062000191818560208601620001e7565b6200019c816200021d565b840191505092915050565b60006020820190508181036000830152620001c3818462000166565b905092915050565b600081519050919050565b600082825260208201905092915050565b60005b8381101562000207578082015181840152602081019050620001ea565b8381111562000217576000848401525b50505050565b6000601f19601f8301169050919050565b60805160601c6113a66200025b600039600081816103dd01528181610564015261082f01526113a66000f3fe608060405234801561001057600080fd5b50600436106100575760003560e01c80636a786b071461005c578063b5cb15f71461008c578063bc4d6e7a146100aa578063c416da82146100c8578063fdf01423146100e6575b600080fd5b61007660048036038101906100719190610cd7565b610102565b6040516100839190610f39565b60405180910390f35b6100946103d9565b6040516100a1919061103d565b60405180910390f35b6100b2610471565b6040516100bf9190610f39565b60405180910390f35b6100d0610560565b6040516100dd9190610f17565b60405180910390f35b61010060048036038101906100fb9190610cd7565b61073f565b005b6000806000803373ffffffffffffffffffffffffffffffffffffffff1673ffffffffffffffffffffffffffffffffffffffff1681526020019081526020016000206000018054610151906111f4565b80601f016020809104026020016040519081016040528092919081815260200182805461017d906111f4565b80156101ca5780601f1061019f576101008083540402835291602001916101ca565b820191906000526020600020905b8154815290600101906020018083116101ad57829003601f168201915b5050505050905060006040518060200160405280600081525051825114905080610229576040517f08c379a000000000000000000000000000000000000000000000000000000000815260040161022090610ffd565b60405180910390fd5b60006040518060400160405280868152602001428152509050806000803373ffffffffffffffffffffffffffffffffffffffff1673ffffffffffffffffffffffffffffffffffffffff168152602001908152602001600020600082015181600001908051906020019061029d929190610bcc565b50602082015181600101559050506103b36040518060400160405280600a81526020017f2573206a6f696e656421000000000000000000000000000000000000000000008152506000803373ffffffffffffffffffffffffffffffffffffffff1673ffffffffffffffffffffffffffffffffffffffff1681526020019081526020016000206000018054610330906111f4565b80601f016020809104026020016040519081016040528092919081815260200182805461035c906111f4565b80156103a95780601f1061037e576101008083540402835291602001916103a9565b820191906000526020600020905b81548152906001019060200180831161038c57829003601f168201915b5050505050610a6b565b6001600260008282546103c69190611114565b9250508190555060019350505050919050565b60007f000000000000000000000000000000000000000000000000000000000000000073ffffffffffffffffffffffffffffffffffffffff163373ffffffffffffffffffffffffffffffffffffffff1614610469576040517f08c379a000000000000000000000000000000000000000000000000000000000815260040161046090610fdd565b60405180910390fd5b600254905090565b6000806000803373ffffffffffffffffffffffffffffffffffffffff1673ffffffffffffffffffffffffffffffffffffffff16815260200190815260200160002060000180546104c0906111f4565b80601f01602080910402602001604051908101604052809291908181526020018280546104ec906111f4565b80156105395780601f1061050e57610100808354040283529160200191610539565b820191906000526020600020905b81548152906001019060200180831161051c57829003601f168201915b50505050509050600060405180602001604052806000815250518251149050809250505090565b60607f000000000000000000000000000000000000000000000000000000000000000073ffffffffffffffffffffffffffffffffffffffff163373ffffffffffffffffffffffffffffffffffffffff16146105f0576040517f08c379a00000000000000000000000000000000000000000000000000000000081526004016105e790610fdd565b60405180910390fd5b6001805480602002602001604051908101604052809291908181526020016000905b8282101561073657838290600052602060002090600302016040518060600160405290816000820160009054906101000a900473ffffffffffffffffffffffffffffffffffffffff1673ffffffffffffffffffffffffffffffffffffffff1673ffffffffffffffffffffffffffffffffffffffff16815260200160018201805461069b906111f4565b80601f01602080910402602001604051908101604052809291908181526020018280546106c7906111f4565b80156107145780601f106106e957610100808354040283529160200191610714565b820191906000526020600020905b8154815290600101906020018083116106f757829003601f168201915b5050505050815260200160028201548152505081526020019060010190610612565b50505050905090565b60008060003373ffffffffffffffffffffffffffffffffffffffff1673ffffffffffffffffffffffffffffffffffffffff168152602001908152602001600020600001805461078d906111f4565b80601f01602080910402602001604051908101604052809291908181526020018280546107b9906111f4565b80156108065780601f106107db57610100808354040283529160200191610806565b820191906000526020600020905b8154815290600101906020018083116107e957829003601f168201915b5050505050905060006040518060200160405280600081525051825114159050808061087d57507f000000000000000000000000000000000000000000000000000000000000000073ffffffffffffffffffffffffffffffffffffffff163373ffffffffffffffffffffffffffffffffffffffff16145b6108bc576040517f08c379a00000000000000000000000000000000000000000000000000000000081526004016108b39061101d565b60405180910390fd5b600060405180606001604052803373ffffffffffffffffffffffffffffffffffffffff168152602001858152602001428152509050600181908060018154018082558091505060019003906000526020600020906003020160009091909190915060008201518160000160006101000a81548173ffffffffffffffffffffffffffffffffffffffff021916908373ffffffffffffffffffffffffffffffffffffffff1602179055506020820151816001019080519060200190610980929190610bcc565b506040820151816002015550506109cc6040518060400160405280601781526020017f257320206a757374207669626564207769746820796f7500000000000000000081525033610b07565b50505050565b610a68816040516024016109e69190610f54565b6040516020818303038152906040527f41304fac000000000000000000000000000000000000000000000000000000007bffffffffffffffffffffffffffffffffffffffffffffffffffffffff19166020820180517bffffffffffffffffffffffffffffffffffffffffffffffffffffffff8381831617835250505050610ba3565b50565b610b038282604051602401610a81929190610fa6565b6040516020818303038152906040527f4b5c4277000000000000000000000000000000000000000000000000000000007bffffffffffffffffffffffffffffffffffffffffffffffffffffffff19166020820180517bffffffffffffffffffffffffffffffffffffffffffffffffffffffff8381831617835250505050610ba3565b5050565b610b9f8282604051602401610b1d929190610f76565b6040516020818303038152906040527f319af333000000000000000000000000000000000000000000000000000000007bffffffffffffffffffffffffffffffffffffffffffffffffffffffff19166020820180517bffffffffffffffffffffffffffffffffffffffffffffffffffffffff8381831617835250505050610ba3565b5050565b60008151905060006a636f6e736f6c652e6c6f679050602083016000808483855afa5050505050565b828054610bd8906111f4565b90600052602060002090601f016020900481019282610bfa5760008555610c41565b82601f10610c1357805160ff1916838001178555610c41565b82800160010185558215610c41579182015b82811115610c40578251825591602001919060010190610c25565b5b509050610c4e9190610c52565b5090565b5b80821115610c6b576000816000905550600101610c53565b5090565b6000610c82610c7d8461107d565b611058565b905082815260208101848484011115610c9a57600080fd5b610ca58482856111b2565b509392505050565b600082601f830112610cbe57600080fd5b8135610cce848260208601610c6f565b91505092915050565b600060208284031215610ce957600080fd5b600082013567ffffffffffffffff811115610d0357600080fd5b610d0f84828501610cad565b91505092915050565b6000610d248383610ea9565b905092915050565b610d358161116a565b82525050565b610d448161116a565b82525050565b6000610d55826110be565b610d5f81856110e1565b935083602082028501610d71856110ae565b8060005b85811015610dad5784840389528151610d8e8582610d18565b9450610d99836110d4565b925060208a01995050600181019050610d75565b50829750879550505050505092915050565b610dc88161117c565b82525050565b6000610dd9826110c9565b610de381856110f2565b9350610df38185602086016111c1565b610dfc816112e4565b840191505092915050565b6000610e12826110c9565b610e1c8185611103565b9350610e2c8185602086016111c1565b610e35816112e4565b840191505092915050565b6000610e4d601583611103565b9150610e58826112f5565b602082019050919050565b6000610e70601e83611103565b9150610e7b8261131e565b602082019050919050565b6000610e93601a83611103565b9150610e9e82611347565b602082019050919050565b6000606083016000830151610ec16000860182610d2c565b5060208301518482036020860152610ed98282610dce565b9150506040830151610eee6040860182610ef9565b508091505092915050565b610f02816111a8565b82525050565b610f11816111a8565b82525050565b60006020820190508181036000830152610f318184610d4a565b905092915050565b6000602082019050610f4e6000830184610dbf565b92915050565b60006020820190508181036000830152610f6e8184610e07565b905092915050565b60006040820190508181036000830152610f908185610e07565b9050610f9f6020830184610d3b565b9392505050565b60006040820190508181036000830152610fc08185610e07565b90508181036020830152610fd48184610e07565b90509392505050565b60006020820190508181036000830152610ff681610e40565b9050919050565b6000602082019050818103600083015261101681610e63565b9050919050565b6000602082019050818103600083015261103681610e86565b9050919050565b60006020820190506110526000830184610f08565b92915050565b6000611062611073565b905061106e8282611226565b919050565b6000604051905090565b600067ffffffffffffffff821115611098576110976112b5565b5b6110a1826112e4565b9050602081019050919050565b6000819050602082019050919050565b600081519050919050565b600081519050919050565b6000602082019050919050565b600082825260208201905092915050565b600082825260208201905092915050565b600082825260208201905092915050565b600061111f826111a8565b915061112a836111a8565b9250827fffffffffffffffffffffffffffffffffffffffffffffffffffffffffffffffff0382111561115f5761115e611257565b5b828201905092915050565b600061117582611188565b9050919050565b60008115159050919050565b600073ffffffffffffffffffffffffffffffffffffffff82169050919050565b6000819050919050565b82818337600083830152505050565b60005b838110156111df5780820151818401526020810190506111c4565b838111156111ee576000848401525b50505050565b6000600282049050600182168061120c57607f821691505b602082108114156112205761121f611286565b5b50919050565b61122f826112e4565b810181811067ffffffffffffffff8211171561124e5761124d6112b5565b5b80604052505050565b7f4e487b7100000000000000000000000000000000000000000000000000000000600052601160045260246000fd5b7f4e487b7100000000000000000000000000000000000000000000000000000000600052602260045260246000fd5b7f4e487b7100000000000000000000000000000000000000000000000000000000600052604160045260246000fd5b6000601f19601f8301169050919050565b7f6572726f723a204e6f7420617574686f72697a65640000000000000000000000600082015250565b7f6572726f723a205573657220616c726561647920726567697374657265640000600082015250565b7f6572726f723a2055736572206e6f74207265676973746572656400000000000060008201525056fea2646970667358221220cdc1f3900f54c054ae6e6466d5cc86f119381813ca70d144a470033a3561ebe764736f6c63430008040033",
  "linkReferences": {},
  "deployedLinkReferences": {}
}