{
  "_format": "hh-sol-artifact-1",
  "contractName": "VibinPortal",
  "sourceName": "contracts/VibinPortal.sol",
  "abi": [
    {
      "inputs": [],
      "stateMutability": "payable",
      "type": "constructor"
    },
    {
      "inputs": [],
      "name": "getUser",
      "outputs": [
        {
          "components": [
            {
              "internalType": "string",
              "name": "username",
              "type": "string"
            },
            {
              "internalType": "uint256",
              "name": "timeStamp",
              "type": "uint256"
            },
            {
              "components": [
                {
                  "internalType": "string",
                  "name": "path",
                  "type": "string"
                },
                {
                  "internalType": "string",
                  "name": "cid",
                  "type": "string"
                },
                {
                  "internalType": "uint256",
                  "name": "size",
                  "type": "uint256"
                }
              ],
              "internalType": "struct VibinPortal.Avatar",
              "name": "profilePic",
              "type": "tuple"
            },
            {
              "internalType": "uint256",
              "name": "rank",
              "type": "uint256"
            }
          ],
          "internalType": "struct VibinPortal.User",
          "name": "",
          "type": "tuple"
        }
      ],
      "stateMutability": "view",
      "type": "function"
    },
    {
      "inputs": [],
      "name": "getUserCount",
      "outputs": [
        {
          "internalType": "uint256",
          "name": "",
          "type": "uint256"
        }
      ],
      "stateMutability": "view",
      "type": "function"
    },
    {
      "inputs": [],
      "name": "getVibes",
      "outputs": [
        {
          "components": [
            {
              "internalType": "address",
              "name": "owner",
              "type": "address"
            },
            {
              "internalType": "string",
              "name": "username",
              "type": "string"
            },
            {
              "internalType": "string",
              "name": "message",
              "type": "string"
            },
            {
              "internalType": "uint256",
              "name": "timestamp",
              "type": "uint256"
            },
            {
              "internalType": "uint256",
              "name": "upvotes",
              "type": "uint256"
            },
            {
              "internalType": "uint256",
              "name": "downvotes",
              "type": "uint256"
            }
          ],
          "internalType": "struct VibinPortal.Vibe[]",
          "name": "",
          "type": "tuple[]"
        }
      ],
      "stateMutability": "view",
      "type": "function"
    },
    {
      "inputs": [],
      "name": "hasJoined",
      "outputs": [
        {
          "internalType": "bool",
          "name": "",
          "type": "bool"
        }
      ],
      "stateMutability": "view",
      "type": "function"
    },
    {
      "inputs": [
        {
          "internalType": "string",
          "name": "_username",
          "type": "string"
        },
        {
          "components": [
            {
              "internalType": "string",
              "name": "path",
              "type": "string"
            },
            {
              "internalType": "string",
              "name": "cid",
              "type": "string"
            },
            {
              "internalType": "uint256",
              "name": "size",
              "type": "uint256"
            }
          ],
          "internalType": "struct VibinPortal.Avatar",
          "name": "_avtr",
          "type": "tuple"
        }
      ],
      "name": "join",
      "outputs": [
        {
          "internalType": "bool",
          "name": "",
          "type": "bool"
        }
      ],
      "stateMutability": "nonpayable",
      "type": "function"
    },
    {
      "inputs": [
        {
          "internalType": "string",
          "name": "_message",
          "type": "string"
        }
      ],
      "name": "vibe",
      "outputs": [],
      "stateMutability": "payable",
      "type": "function"
    }
  ],
  "bytecode": "0x60a06040523373ffffffffffffffffffffffffffffffffffffffff1660808173ffffffffffffffffffffffffffffffffffffffff1660601b81525050606444426200004b919062000063565b620000579190620000ca565b60008190555062000160565b60006200007082620000c0565b91506200007d83620000c0565b9250827fffffffffffffffffffffffffffffffffffffffffffffffffffffffffffffffff03821115620000b557620000b462000102565b5b828201905092915050565b6000819050919050565b6000620000d782620000c0565b9150620000e483620000c0565b925082620000f757620000f662000131565b5b828206905092915050565b7f4e487b7100000000000000000000000000000000000000000000000000000000600052601160045260246000fd5b7f4e487b7100000000000000000000000000000000000000000000000000000000600052601260045260246000fd5b60805160601c611bcc6200018d600039600081816104900152818161070b0152610cba0152611bcc6000f3fe6080604052600436106100555760003560e01c8063832880e71461005a578063b5cb15f714610085578063bc4d6e7a146100b0578063c416da82146100db578063f4fab1f514610106578063fdf0142314610143575b600080fd5b34801561006657600080fd5b5061006f61015f565b60405161007c91906117ca565b60405180910390f35b34801561009157600080fd5b5061009a61039e565b6040516100a791906117ec565b60405180910390f35b3480156100bc57600080fd5b506100c5610527565b6040516100d2919061170f565b60405180910390f35b3480156100e757600080fd5b506100f0610618565b6040516100fd91906116ed565b60405180910390f35b34801561011257600080fd5b5061012d6004803603810190610128919061134b565b61098f565b60405161013a919061170f565b60405180910390f35b61015d6004803603810190610158919061130a565b610bc9565b005b61016761110b565b600160003373ffffffffffffffffffffffffffffffffffffffff1673ffffffffffffffffffffffffffffffffffffffff1681526020019081526020016000206040518060800160405290816000820180546101c1906119ae565b80601f01602080910402602001604051908101604052809291908181526020018280546101ed906119ae565b801561023a5780601f1061020f5761010080835404028352916020019161023a565b820191906000526020600020905b81548152906001019060200180831161021d57829003601f168201915b50505050508152602001600182015481526020016002820160405180606001604052908160008201805461026d906119ae565b80601f0160208091040260200160405190810160405280929190818152602001828054610299906119ae565b80156102e65780601f106102bb576101008083540402835291602001916102e6565b820191906000526020600020905b8154815290600101906020018083116102c957829003601f168201915b505050505081526020016001820180546102ff906119ae565b80601f016020809104026020016040519081016040528092919081815260200182805461032b906119ae565b80156103785780601f1061034d57610100808354040283529160200191610378565b820191906000526020600020905b81548152906001019060200180831161035b57829003601f168201915b505050505081526020016002820154815250508152602001600582015481525050905090565b600080600160003373ffffffffffffffffffffffffffffffffffffffff1673ffffffffffffffffffffffffffffffffffffffff16815260200190815260200160002060000180546103ee906119ae565b80601f016020809104026020016040519081016040528092919081815260200182805461041a906119ae565b80156104675780601f1061043c57610100808354040283529160200191610467565b820191906000526020600020905b81548152906001019060200180831161044a57829003601f168201915b505050505090506000604051806020016040528060008152505182511415905080806104de57507f000000000000000000000000000000000000000000000000000000000000000073ffffffffffffffffffffffffffffffffffffffff163373ffffffffffffffffffffffffffffffffffffffff16145b61051d576040517f08c379a00000000000000000000000000000000000000000000000000000000081526004016105149061176a565b60405180910390fd5b6004549250505090565b600080600160003373ffffffffffffffffffffffffffffffffffffffff1673ffffffffffffffffffffffffffffffffffffffff1681526020019081526020016000206000018054610577906119ae565b80601f01602080910402602001604051908101604052809291908181526020018280546105a3906119ae565b80156105f05780601f106105c5576101008083540402835291602001916105f0565b820191906000526020600020905b8154815290600101906020018083116105d357829003601f168201915b5050505050905060006040518060200160405280600081525051825114159050809250505090565b60606000600160003373ffffffffffffffffffffffffffffffffffffffff1673ffffffffffffffffffffffffffffffffffffffff1681526020019081526020016000206000018054610669906119ae565b80601f0160208091040260200160405190810160405280929190818152602001828054610695906119ae565b80156106e25780601f106106b7576101008083540402835291602001916106e2565b820191906000526020600020905b8154815290600101906020018083116106c557829003601f168201915b5050505050905060006040518060200160405280600081525051825114159050808061075957507f000000000000000000000000000000000000000000000000000000000000000073ffffffffffffffffffffffffffffffffffffffff163373ffffffffffffffffffffffffffffffffffffffff16145b610798576040517f08c379a000000000000000000000000000000000000000000000000000000000815260040161078f9061176a565b60405180910390fd5b6003805480602002602001604051908101604052809291908181526020016000905b8282101561098457838290600052602060002090600602016040518060c00160405290816000820160009054906101000a900473ffffffffffffffffffffffffffffffffffffffff1673ffffffffffffffffffffffffffffffffffffffff1673ffffffffffffffffffffffffffffffffffffffff168152602001600182018054610843906119ae565b80601f016020809104026020016040519081016040528092919081815260200182805461086f906119ae565b80156108bc5780601f10610891576101008083540402835291602001916108bc565b820191906000526020600020905b81548152906001019060200180831161089f57829003601f168201915b505050505081526020016002820180546108d5906119ae565b80601f0160208091040260200160405190810160405280929190818152602001828054610901906119ae565b801561094e5780601f106109235761010080835404028352916020019161094e565b820191906000526020600020905b81548152906001019060200180831161093157829003601f168201915b505050505081526020016003820154815260200160048201548152602001600582015481525050815260200190600101906107ba565b505050509250505090565b600080600160003373ffffffffffffffffffffffffffffffffffffffff1673ffffffffffffffffffffffffffffffffffffffff16815260200190815260200160002060000180546109df906119ae565b80601f0160208091040260200160405190810160405280929190818152602001828054610a0b906119ae565b8015610a585780601f10610a2d57610100808354040283529160200191610a58565b820191906000526020600020905b815481529060010190602001808311610a3b57829003601f168201915b50505050509050600060405180602001604052806000815250518251141590508015610ab9576040517f08c379a0000000000000000000000000000000000000000000000000000000008152600401610ab0906117aa565b60405180910390fd5b600060405180608001604052808781526020014281526020018681526020016000815250905080600160003373ffffffffffffffffffffffffffffffffffffffff1673ffffffffffffffffffffffffffffffffffffffff1681526020019081526020016000206000820151816000019080519060200190610b3b929190611139565b50602082015181600101556040820151816002016000820151816000019080519060200190610b6b929190611139565b506020820151816001019080519060200190610b88929190611139565b5060408201518160020155505060608201518160050155905050600160046000828254610bb591906118ce565b925050819055506001935050505092915050565b6000600160003373ffffffffffffffffffffffffffffffffffffffff1673ffffffffffffffffffffffffffffffffffffffff1681526020019081526020016000206000018054610c18906119ae565b80601f0160208091040260200160405190810160405280929190818152602001828054610c44906119ae565b8015610c915780601f10610c6657610100808354040283529160200191610c91565b820191906000526020600020905b815481529060010190602001808311610c7457829003601f168201915b50505050509050600060405180602001604052806000815250518251141590508080610d0857507f000000000000000000000000000000000000000000000000000000000000000073ffffffffffffffffffffffffffffffffffffffff163373ffffffffffffffffffffffffffffffffffffffff16145b610d47576040517f08c379a0000000000000000000000000000000000000000000000000000000008152600401610d3e9061176a565b60405180910390fd5b6000600160003373ffffffffffffffffffffffffffffffffffffffff1673ffffffffffffffffffffffffffffffffffffffff1681526020019081526020016000206000018054610d96906119ae565b80601f0160208091040260200160405190810160405280929190818152602001828054610dc2906119ae565b8015610e0f5780601f10610de457610100808354040283529160200191610e0f565b820191906000526020600020905b815481529060010190602001808311610df257829003601f168201915b5050505050905060006040518060c001604052803373ffffffffffffffffffffffffffffffffffffffff1681526020018381526020018681526020014281526020016000815260200160008152509050600381908060018154018082558091505060019003906000526020600020906006020160009091909190915060008201518160000160006101000a81548173ffffffffffffffffffffffffffffffffffffffff021916908373ffffffffffffffffffffffffffffffffffffffff1602179055506020820151816001019080519060200190610eee929190611139565b506040820151816002019080519060200190610f0b929190611139565b50606082015181600301556080820151816004015560a0820151816005015550506032600054116111045742610384600260003373ffffffffffffffffffffffffffffffffffffffff1673ffffffffffffffffffffffffffffffffffffffff16815260200190815260200160002054610f8491906118ce565b10610fc4576040517f08c379a0000000000000000000000000000000000000000000000000000000008152600401610fbb9061178a565b60405180910390fd5b42600260003373ffffffffffffffffffffffffffffffffffffffff1673ffffffffffffffffffffffffffffffffffffffff168152602001908152602001600020819055506000655af3107a40009050478110611055576040517f08c379a000000000000000000000000000000000000000000000000000000000815260040161104c9061174a565b60405180910390fd5b60003373ffffffffffffffffffffffffffffffffffffffff168260405161107b906116d8565b60006040518083038185875af1925050503d80600081146110b8576040519150601f19603f3d011682016040523d82523d6000602084013e6110bd565b606091505b5050905080611101576040517f08c379a00000000000000000000000000000000000000000000000000000000081526004016110f89061172a565b60405180910390fd5b50505b5050505050565b6040518060800160405280606081526020016000815260200161112c6111bf565b8152602001600081525090565b828054611145906119ae565b90600052602060002090601f01602090048101928261116757600085556111ae565b82601f1061118057805160ff19168380011785556111ae565b828001600101855582156111ae579182015b828111156111ad578251825591602001919060010190611192565b5b5090506111bb91906111e0565b5090565b60405180606001604052806060815260200160608152602001600081525090565b5b808211156111f95760008160009055506001016111e1565b5090565b600061121061120b8461182c565b611807565b90508281526020810184848401111561122857600080fd5b61123384828561196c565b509392505050565b600082601f83011261124c57600080fd5b813561125c8482602086016111fd565b91505092915050565b60006060828403121561127757600080fd5b6112816060611807565b9050600082013567ffffffffffffffff81111561129d57600080fd5b6112a98482850161123b565b600083015250602082013567ffffffffffffffff8111156112c957600080fd5b6112d58482850161123b565b60208301525060406112e9848285016112f5565b60408301525092915050565b60008135905061130481611b7f565b92915050565b60006020828403121561131c57600080fd5b600082013567ffffffffffffffff81111561133657600080fd5b6113428482850161123b565b91505092915050565b6000806040838503121561135e57600080fd5b600083013567ffffffffffffffff81111561137857600080fd5b6113848582860161123b565b925050602083013567ffffffffffffffff8111156113a157600080fd5b6113ad85828601611265565b9150509250929050565b60006113c3838361162a565b905092915050565b6113d481611924565b82525050565b60006113e58261186d565b6113ef8185611890565b9350836020820285016114018561185d565b8060005b8581101561143d578484038952815161141e85826113b7565b945061142983611883565b925060208a01995050600181019050611405565b50829750879550505050505092915050565b61145881611936565b82525050565b600061146982611878565b61147381856118ac565b935061148381856020860161197b565b61148c81611a9e565b840191505092915050565b60006114a4601e836118bd565b91506114af82611aaf565b602082019050919050565b60006114c7601c836118bd565b91506114d282611ad8565b602082019050919050565b60006114ea6015836118bd565b91506114f582611b01565b602082019050919050565b600061150d6011836118bd565b915061151882611b2a565b602082019050919050565b6000611530601e836118bd565b915061153b82611b53565b602082019050919050565b60006115536000836118a1565b915061155e82611b7c565b600082019050919050565b60006060830160008301518482036000860152611586828261145e565b915050602083015184820360208601526115a0828261145e565b91505060408301516115b560408601826116ba565b508091505092915050565b600060808301600083015184820360008601526115dd828261145e565b91505060208301516115f260208601826116ba565b506040830151848203604086015261160a8282611569565b915050606083015161161f60608601826116ba565b508091505092915050565b600060c08301600083015161164260008601826113cb565b506020830151848203602086015261165a828261145e565b91505060408301518482036040860152611674828261145e565b915050606083015161168960608601826116ba565b50608083015161169c60808601826116ba565b5060a08301516116af60a08601826116ba565b508091505092915050565b6116c381611962565b82525050565b6116d281611962565b82525050565b60006116e382611546565b9150819050919050565b6000602082019050818103600083015261170781846113da565b905092915050565b6000602082019050611724600083018461144f565b92915050565b6000602082019050818103600083015261174381611497565b9050919050565b60006020820190508181036000830152611763816114ba565b9050919050565b60006020820190508181036000830152611783816114dd565b9050919050565b600060208201905081810360008301526117a381611500565b9050919050565b600060208201905081810360008301526117c381611523565b9050919050565b600060208201905081810360008301526117e481846115c0565b905092915050565b600060208201905061180160008301846116c9565b92915050565b6000611811611822565b905061181d82826119e0565b919050565b6000604051905090565b600067ffffffffffffffff82111561184757611846611a6f565b5b61185082611a9e565b9050602081019050919050565b6000819050602082019050919050565b600081519050919050565b600081519050919050565b6000602082019050919050565b600082825260208201905092915050565b600081905092915050565b600082825260208201905092915050565b600082825260208201905092915050565b60006118d982611962565b91506118e483611962565b9250827fffffffffffffffffffffffffffffffffffffffffffffffffffffffffffffffff0382111561191957611918611a11565b5b828201905092915050565b600061192f82611942565b9050919050565b60008115159050919050565b600073ffffffffffffffffffffffffffffffffffffffff82169050919050565b6000819050919050565b82818337600083830152505050565b60005b8381101561199957808201518184015260208101905061197e565b838111156119a8576000848401525b50505050565b600060028204905060018216806119c657607f821691505b602082108114156119da576119d9611a40565b5b50919050565b6119e982611a9e565b810181811067ffffffffffffffff82111715611a0857611a07611a6f565b5b80604052505050565b7f4e487b7100000000000000000000000000000000000000000000000000000000600052601160045260246000fd5b7f4e487b7100000000000000000000000000000000000000000000000000000000600052602260045260246000fd5b7f4e487b7100000000000000000000000000000000000000000000000000000000600052604160045260246000fd5b6000601f19601f8301169050919050565b7f4661696c656420746f207769746864726177207072697a652066756e64730000600082015250565b7f556e73756666696369656e742066756e647320666f72207072697a6500000000600082015250565b7f6572726f723a204e6f7420617574686f72697a65640000000000000000000000600082015250565b7f546f6f206d616e79207265717565737473000000000000000000000000000000600082015250565b7f6572726f723a205573657220616c726561647920726567697374657265640000600082015250565b50565b611b8881611962565b8114611b9357600080fd5b5056fea2646970667358221220e28c381d1528a1a2e44a5474fde339c3b391eb6ae13beb1f51360eb4187628bf64736f6c63430008040033",
  "linkReferences": {},
  "deployedLinkReferences": {}
}