{
  "_format": "hh-sol-artifact-1",
  "contractName": "VibinPortal",
  "sourceName": "contracts/VibinPortal.sol",
  "abi": [
    {
      "inputs": [],
      "stateMutability": "nonpayable",
      "type": "constructor"
    },
    {
      "inputs": [],
      "name": "getUser",
      "outputs": [
        {
          "components": [
            {
              "internalType": "string",
              "name": "username",
              "type": "string"
            },
            {
              "internalType": "uint256",
              "name": "timeStamp",
              "type": "uint256"
            }
          ],
          "internalType": "struct VibinPortal.User",
          "name": "",
          "type": "tuple"
        }
      ],
      "stateMutability": "view",
      "type": "function"
    },
    {
      "inputs": [],
      "name": "getUserCount",
      "outputs": [
        {
          "internalType": "uint256",
          "name": "",
          "type": "uint256"
        }
      ],
      "stateMutability": "view",
      "type": "function"
    },
    {
      "inputs": [],
      "name": "getVibes",
      "outputs": [
        {
          "components": [
            {
              "internalType": "address",
              "name": "owner",
              "type": "address"
            },
            {
              "internalType": "string",
              "name": "username",
              "type": "string"
            },
            {
              "internalType": "string",
              "name": "message",
              "type": "string"
            },
            {
              "internalType": "uint256",
              "name": "timestamp",
              "type": "uint256"
            }
          ],
          "internalType": "struct VibinPortal.Vibe[]",
          "name": "",
          "type": "tuple[]"
        }
      ],
      "stateMutability": "view",
      "type": "function"
    },
    {
      "inputs": [],
      "name": "hasJoined",
      "outputs": [
        {
          "internalType": "bool",
          "name": "",
          "type": "bool"
        }
      ],
      "stateMutability": "view",
      "type": "function"
    },
    {
      "inputs": [
        {
          "internalType": "string",
          "name": "_username",
          "type": "string"
        }
      ],
      "name": "join",
      "outputs": [
        {
          "internalType": "bool",
          "name": "",
          "type": "bool"
        }
      ],
      "stateMutability": "nonpayable",
      "type": "function"
    },
    {
      "inputs": [
        {
          "internalType": "string",
          "name": "_message",
          "type": "string"
        }
      ],
      "name": "vibe",
      "outputs": [],
      "stateMutability": "nonpayable",
      "type": "function"
    }
  ],
  "bytecode": "0x60a060405234801561001057600080fd5b503373ffffffffffffffffffffffffffffffffffffffff1660808173ffffffffffffffffffffffffffffffffffffffff1660601b8152505060805160601c61143e610074600039600081816104df015281816107580152610ab8015261143e6000f3fe608060405234801561001057600080fd5b50600436106100625760003560e01c80636a786b0714610067578063832880e714610097578063b5cb15f7146100b5578063bc4d6e7a146100d3578063c416da82146100f1578063fdf014231461010f575b600080fd5b610081600480360381019061007c9190610e33565b61012b565b60405161008e9190611081565b60405180910390f35b61009f6102fc565b6040516100ac91906110dc565b60405180910390f35b6100bd6103ee565b6040516100ca91906110fe565b60405180910390f35b6100db610576565b6040516100e89190611081565b60405180910390f35b6100f9610666565b604051610106919061105f565b60405180910390f35b61012960048036038101906101249190610e33565b6109c8565b005b6000806000803373ffffffffffffffffffffffffffffffffffffffff1673ffffffffffffffffffffffffffffffffffffffff168152602001908152602001600020600001805461017a906112b5565b80601f01602080910402602001604051908101604052809291908181526020018280546101a6906112b5565b80156101f35780601f106101c8576101008083540402835291602001916101f3565b820191906000526020600020905b8154815290600101906020018083116101d657829003601f168201915b50505050509050600060405180602001604052806000815250518251141590508015610254576040517f08c379a000000000000000000000000000000000000000000000000000000000815260040161024b906110bc565b60405180910390fd5b60006040518060400160405280868152602001428152509050806000803373ffffffffffffffffffffffffffffffffffffffff1673ffffffffffffffffffffffffffffffffffffffff16815260200190815260200160002060008201518160000190805190602001906102c8929190610d0e565b50602082015181600101559050506001600260008282546102e991906111d5565b9250508190555060019350505050919050565b610304610d94565b6000803373ffffffffffffffffffffffffffffffffffffffff1673ffffffffffffffffffffffffffffffffffffffff16815260200190815260200160002060405180604001604052908160008201805461035d906112b5565b80601f0160208091040260200160405190810160405280929190818152602001828054610389906112b5565b80156103d65780601f106103ab576101008083540402835291602001916103d6565b820191906000526020600020905b8154815290600101906020018083116103b957829003601f168201915b50505050508152602001600182015481525050905090565b6000806000803373ffffffffffffffffffffffffffffffffffffffff1673ffffffffffffffffffffffffffffffffffffffff168152602001908152602001600020600001805461043d906112b5565b80601f0160208091040260200160405190810160405280929190818152602001828054610469906112b5565b80156104b65780601f1061048b576101008083540402835291602001916104b6565b820191906000526020600020905b81548152906001019060200180831161049957829003601f168201915b5050505050905060006040518060200160405280600081525051825114159050808061052d57507f000000000000000000000000000000000000000000000000000000000000000073ffffffffffffffffffffffffffffffffffffffff163373ffffffffffffffffffffffffffffffffffffffff16145b61056c576040517f08c379a00000000000000000000000000000000000000000000000000000000081526004016105639061109c565b60405180910390fd5b6002549250505090565b6000806000803373ffffffffffffffffffffffffffffffffffffffff1673ffffffffffffffffffffffffffffffffffffffff16815260200190815260200160002060000180546105c5906112b5565b80601f01602080910402602001604051908101604052809291908181526020018280546105f1906112b5565b801561063e5780601f106106135761010080835404028352916020019161063e565b820191906000526020600020905b81548152906001019060200180831161062157829003601f168201915b5050505050905060006040518060200160405280600081525051825114159050809250505090565b606060008060003373ffffffffffffffffffffffffffffffffffffffff1673ffffffffffffffffffffffffffffffffffffffff16815260200190815260200160002060000180546106b6906112b5565b80601f01602080910402602001604051908101604052809291908181526020018280546106e2906112b5565b801561072f5780601f106107045761010080835404028352916020019161072f565b820191906000526020600020905b81548152906001019060200180831161071257829003601f168201915b505050505090506000604051806020016040528060008152505182511415905080806107a657507f000000000000000000000000000000000000000000000000000000000000000073ffffffffffffffffffffffffffffffffffffffff163373ffffffffffffffffffffffffffffffffffffffff16145b6107e5576040517f08c379a00000000000000000000000000000000000000000000000000000000081526004016107dc9061109c565b60405180910390fd5b6001805480602002602001604051908101604052809291908181526020016000905b828210156109bd57838290600052602060002090600402016040518060800160405290816000820160009054906101000a900473ffffffffffffffffffffffffffffffffffffffff1673ffffffffffffffffffffffffffffffffffffffff1673ffffffffffffffffffffffffffffffffffffffff168152602001600182018054610890906112b5565b80601f01602080910402602001604051908101604052809291908181526020018280546108bc906112b5565b80156109095780601f106108de57610100808354040283529160200191610909565b820191906000526020600020905b8154815290600101906020018083116108ec57829003601f168201915b50505050508152602001600282018054610922906112b5565b80601f016020809104026020016040519081016040528092919081815260200182805461094e906112b5565b801561099b5780601f106109705761010080835404028352916020019161099b565b820191906000526020600020905b81548152906001019060200180831161097e57829003601f168201915b5050505050815260200160038201548152505081526020019060010190610807565b505050509250505090565b60008060003373ffffffffffffffffffffffffffffffffffffffff1673ffffffffffffffffffffffffffffffffffffffff1681526020019081526020016000206000018054610a16906112b5565b80601f0160208091040260200160405190810160405280929190818152602001828054610a42906112b5565b8015610a8f5780601f10610a6457610100808354040283529160200191610a8f565b820191906000526020600020905b815481529060010190602001808311610a7257829003601f168201915b50505050509050600060405180602001604052806000815250518251141590508080610b0657507f000000000000000000000000000000000000000000000000000000000000000073ffffffffffffffffffffffffffffffffffffffff163373ffffffffffffffffffffffffffffffffffffffff16145b610b45576040517f08c379a0000000000000000000000000000000000000000000000000000000008152600401610b3c9061109c565b60405180910390fd5b60008060003373ffffffffffffffffffffffffffffffffffffffff1673ffffffffffffffffffffffffffffffffffffffff1681526020019081526020016000206000018054610b93906112b5565b80601f0160208091040260200160405190810160405280929190818152602001828054610bbf906112b5565b8015610c0c5780601f10610be157610100808354040283529160200191610c0c565b820191906000526020600020905b815481529060010190602001808311610bef57829003601f168201915b50505050509050600060405180608001604052803373ffffffffffffffffffffffffffffffffffffffff168152602001838152602001868152602001428152509050600181908060018154018082558091505060019003906000526020600020906004020160009091909190915060008201518160000160006101000a81548173ffffffffffffffffffffffffffffffffffffffff021916908373ffffffffffffffffffffffffffffffffffffffff1602179055506020820151816001019080519060200190610cdd929190610d0e565b506040820151816002019080519060200190610cfa929190610d0e565b506060820151816003015550505050505050565b828054610d1a906112b5565b90600052602060002090601f016020900481019282610d3c5760008555610d83565b82601f10610d5557805160ff1916838001178555610d83565b82800160010185558215610d83579182015b82811115610d82578251825591602001919060010190610d67565b5b509050610d909190610dae565b5090565b604051806040016040528060608152602001600081525090565b5b80821115610dc7576000816000905550600101610daf565b5090565b6000610dde610dd98461113e565b611119565b905082815260208101848484011115610df657600080fd5b610e01848285611273565b509392505050565b600082601f830112610e1a57600080fd5b8135610e2a848260208601610dcb565b91505092915050565b600060208284031215610e4557600080fd5b600082013567ffffffffffffffff811115610e5f57600080fd5b610e6b84828501610e09565b91505092915050565b6000610e808383610fd7565b905092915050565b610e918161122b565b82525050565b6000610ea28261117f565b610eac81856111a2565b935083602082028501610ebe8561116f565b8060005b85811015610efa5784840389528151610edb8582610e74565b9450610ee683611195565b925060208a01995050600181019050610ec2565b50829750879550505050505092915050565b610f158161123d565b82525050565b6000610f268261118a565b610f3081856111b3565b9350610f40818560208601611282565b610f49816113a5565b840191505092915050565b6000610f616015836111c4565b9150610f6c826113b6565b602082019050919050565b6000610f84601e836111c4565b9150610f8f826113df565b602082019050919050565b60006040830160008301518482036000860152610fb78282610f1b565b9150506020830151610fcc6020860182611041565b508091505092915050565b6000608083016000830151610fef6000860182610e88565b50602083015184820360208601526110078282610f1b565b915050604083015184820360408601526110218282610f1b565b91505060608301516110366060860182611041565b508091505092915050565b61104a81611269565b82525050565b61105981611269565b82525050565b600060208201905081810360008301526110798184610e97565b905092915050565b60006020820190506110966000830184610f0c565b92915050565b600060208201905081810360008301526110b581610f54565b9050919050565b600060208201905081810360008301526110d581610f77565b9050919050565b600060208201905081810360008301526110f68184610f9a565b905092915050565b60006020820190506111136000830184611050565b92915050565b6000611123611134565b905061112f82826112e7565b919050565b6000604051905090565b600067ffffffffffffffff82111561115957611158611376565b5b611162826113a5565b9050602081019050919050565b6000819050602082019050919050565b600081519050919050565b600081519050919050565b6000602082019050919050565b600082825260208201905092915050565b600082825260208201905092915050565b600082825260208201905092915050565b60006111e082611269565b91506111eb83611269565b9250827fffffffffffffffffffffffffffffffffffffffffffffffffffffffffffffffff038211156112205761121f611318565b5b828201905092915050565b600061123682611249565b9050919050565b60008115159050919050565b600073ffffffffffffffffffffffffffffffffffffffff82169050919050565b6000819050919050565b82818337600083830152505050565b60005b838110156112a0578082015181840152602081019050611285565b838111156112af576000848401525b50505050565b600060028204905060018216806112cd57607f821691505b602082108114156112e1576112e0611347565b5b50919050565b6112f0826113a5565b810181811067ffffffffffffffff8211171561130f5761130e611376565b5b80604052505050565b7f4e487b7100000000000000000000000000000000000000000000000000000000600052601160045260246000fd5b7f4e487b7100000000000000000000000000000000000000000000000000000000600052602260045260246000fd5b7f4e487b7100000000000000000000000000000000000000000000000000000000600052604160045260246000fd5b6000601f19601f8301169050919050565b7f6572726f723a204e6f7420617574686f72697a65640000000000000000000000600082015250565b7f6572726f723a205573657220616c72656164792072656769737465726564000060008201525056fea2646970667358221220dc17b5b8bd4d9db8def150e232df82bd43f90b0d57673ebaac52071f76c8858364736f6c63430008040033",
  "linkReferences": {},
  "deployedLinkReferences": {}
}