{
  "_format": "hh-sol-artifact-1",
  "contractName": "VibinPortal",
  "sourceName": "contracts/VibinPortal.sol",
  "abi": [
    {
      "inputs": [],
      "stateMutability": "payable",
      "type": "constructor"
    },
    {
      "inputs": [],
      "name": "getUser",
      "outputs": [
        {
          "components": [
            {
              "internalType": "string",
              "name": "username",
              "type": "string"
            },
            {
              "internalType": "uint256",
              "name": "timeStamp",
              "type": "uint256"
            }
          ],
          "internalType": "struct VibinPortal.User",
          "name": "",
          "type": "tuple"
        }
      ],
      "stateMutability": "view",
      "type": "function"
    },
    {
      "inputs": [],
      "name": "getUserCount",
      "outputs": [
        {
          "internalType": "uint256",
          "name": "",
          "type": "uint256"
        }
      ],
      "stateMutability": "view",
      "type": "function"
    },
    {
      "inputs": [],
      "name": "getVibes",
      "outputs": [
        {
          "components": [
            {
              "internalType": "address",
              "name": "owner",
              "type": "address"
            },
            {
              "internalType": "string",
              "name": "username",
              "type": "string"
            },
            {
              "internalType": "string",
              "name": "message",
              "type": "string"
            },
            {
              "internalType": "uint256",
              "name": "timestamp",
              "type": "uint256"
            }
          ],
          "internalType": "struct VibinPortal.Vibe[]",
          "name": "",
          "type": "tuple[]"
        }
      ],
      "stateMutability": "view",
      "type": "function"
    },
    {
      "inputs": [],
      "name": "hasJoined",
      "outputs": [
        {
          "internalType": "bool",
          "name": "",
          "type": "bool"
        }
      ],
      "stateMutability": "view",
      "type": "function"
    },
    {
      "inputs": [
        {
          "internalType": "string",
          "name": "_username",
          "type": "string"
        }
      ],
      "name": "join",
      "outputs": [
        {
          "internalType": "bool",
          "name": "",
          "type": "bool"
        }
      ],
      "stateMutability": "nonpayable",
      "type": "function"
    },
    {
      "inputs": [
        {
          "internalType": "string",
          "name": "_message",
          "type": "string"
        }
      ],
      "name": "vibe",
      "outputs": [],
      "stateMutability": "payable",
      "type": "function"
    }
  ],
  "bytecode": "0x60a06040523373ffffffffffffffffffffffffffffffffffffffff1660808173ffffffffffffffffffffffffffffffffffffffff1660601b81525050606444426200004b919062000063565b620000579190620000ca565b60008190555062000160565b60006200007082620000c0565b91506200007d83620000c0565b9250827fffffffffffffffffffffffffffffffffffffffffffffffffffffffffffffffff03821115620000b557620000b462000102565b5b828201905092915050565b6000819050919050565b6000620000d782620000c0565b9150620000e483620000c0565b925082620000f757620000f662000131565b5b828206905092915050565b7f4e487b7100000000000000000000000000000000000000000000000000000000600052601160045260246000fd5b7f4e487b7100000000000000000000000000000000000000000000000000000000600052601260045260246000fd5b60805160601c6117dc6200018d60003960008181610517015281816107920152610af301526117dc6000f3fe6080604052600436106100555760003560e01c80636a786b071461005a578063832880e714610097578063b5cb15f7146100c2578063bc4d6e7a146100ed578063c416da8214610118578063fdf0142314610143575b600080fd5b34801561006657600080fd5b50610081600480360381019061007c9190611047565b61015f565b60405161008e9190611336565b60405180910390f35b3480156100a357600080fd5b506100ac610332565b6040516100b991906113f1565b60405180910390f35b3480156100ce57600080fd5b506100d7610425565b6040516100e49190611413565b60405180910390f35b3480156100f957600080fd5b506101026105ae565b60405161010f9190611336565b60405180910390f35b34801561012457600080fd5b5061012d61069f565b60405161013a9190611314565b60405180910390f35b61015d60048036038101906101589190611047565b610a02565b005b600080600160003373ffffffffffffffffffffffffffffffffffffffff1673ffffffffffffffffffffffffffffffffffffffff16815260200190815260200160002060000180546101af906115d5565b80601f01602080910402602001604051908101604052809291908181526020018280546101db906115d5565b80156102285780601f106101fd57610100808354040283529160200191610228565b820191906000526020600020905b81548152906001019060200180831161020b57829003601f168201915b50505050509050600060405180602001604052806000815250518251141590508015610289576040517f08c379a0000000000000000000000000000000000000000000000000000000008152600401610280906113d1565b60405180910390fd5b6000604051806040016040528086815260200142815250905080600160003373ffffffffffffffffffffffffffffffffffffffff1673ffffffffffffffffffffffffffffffffffffffff16815260200190815260200160002060008201518160000190805190602001906102fe929190610f22565b506020820151816001015590505060016004600082825461031f91906114f5565b9250508190555060019350505050919050565b61033a610fa8565b600160003373ffffffffffffffffffffffffffffffffffffffff1673ffffffffffffffffffffffffffffffffffffffff168152602001908152602001600020604051806040016040529081600082018054610394906115d5565b80601f01602080910402602001604051908101604052809291908181526020018280546103c0906115d5565b801561040d5780601f106103e25761010080835404028352916020019161040d565b820191906000526020600020905b8154815290600101906020018083116103f057829003601f168201915b50505050508152602001600182015481525050905090565b600080600160003373ffffffffffffffffffffffffffffffffffffffff1673ffffffffffffffffffffffffffffffffffffffff1681526020019081526020016000206000018054610475906115d5565b80601f01602080910402602001604051908101604052809291908181526020018280546104a1906115d5565b80156104ee5780601f106104c3576101008083540402835291602001916104ee565b820191906000526020600020905b8154815290600101906020018083116104d157829003601f168201915b5050505050905060006040518060200160405280600081525051825114159050808061056557507f000000000000000000000000000000000000000000000000000000000000000073ffffffffffffffffffffffffffffffffffffffff163373ffffffffffffffffffffffffffffffffffffffff16145b6105a4576040517f08c379a000000000000000000000000000000000000000000000000000000000815260040161059b90611391565b60405180910390fd5b6004549250505090565b600080600160003373ffffffffffffffffffffffffffffffffffffffff1673ffffffffffffffffffffffffffffffffffffffff16815260200190815260200160002060000180546105fe906115d5565b80601f016020809104026020016040519081016040528092919081815260200182805461062a906115d5565b80156106775780601f1061064c57610100808354040283529160200191610677565b820191906000526020600020905b81548152906001019060200180831161065a57829003601f168201915b5050505050905060006040518060200160405280600081525051825114159050809250505090565b60606000600160003373ffffffffffffffffffffffffffffffffffffffff1673ffffffffffffffffffffffffffffffffffffffff16815260200190815260200160002060000180546106f0906115d5565b80601f016020809104026020016040519081016040528092919081815260200182805461071c906115d5565b80156107695780601f1061073e57610100808354040283529160200191610769565b820191906000526020600020905b81548152906001019060200180831161074c57829003601f168201915b505050505090506000604051806020016040528060008152505182511415905080806107e057507f000000000000000000000000000000000000000000000000000000000000000073ffffffffffffffffffffffffffffffffffffffff163373ffffffffffffffffffffffffffffffffffffffff16145b61081f576040517f08c379a000000000000000000000000000000000000000000000000000000000815260040161081690611391565b60405180910390fd5b6003805480602002602001604051908101604052809291908181526020016000905b828210156109f757838290600052602060002090600402016040518060800160405290816000820160009054906101000a900473ffffffffffffffffffffffffffffffffffffffff1673ffffffffffffffffffffffffffffffffffffffff1673ffffffffffffffffffffffffffffffffffffffff1681526020016001820180546108ca906115d5565b80601f01602080910402602001604051908101604052809291908181526020018280546108f6906115d5565b80156109435780601f1061091857610100808354040283529160200191610943565b820191906000526020600020905b81548152906001019060200180831161092657829003601f168201915b5050505050815260200160028201805461095c906115d5565b80601f0160208091040260200160405190810160405280929190818152602001828054610988906115d5565b80156109d55780601f106109aa576101008083540402835291602001916109d5565b820191906000526020600020905b8154815290600101906020018083116109b857829003601f168201915b5050505050815260200160038201548152505081526020019060010190610841565b505050509250505090565b6000600160003373ffffffffffffffffffffffffffffffffffffffff1673ffffffffffffffffffffffffffffffffffffffff1681526020019081526020016000206000018054610a51906115d5565b80601f0160208091040260200160405190810160405280929190818152602001828054610a7d906115d5565b8015610aca5780601f10610a9f57610100808354040283529160200191610aca565b820191906000526020600020905b815481529060010190602001808311610aad57829003601f168201915b50505050509050600060405180602001604052806000815250518251141590508080610b4157507f000000000000000000000000000000000000000000000000000000000000000073ffffffffffffffffffffffffffffffffffffffff163373ffffffffffffffffffffffffffffffffffffffff16145b610b80576040517f08c379a0000000000000000000000000000000000000000000000000000000008152600401610b7790611391565b60405180910390fd5b6000600160003373ffffffffffffffffffffffffffffffffffffffff1673ffffffffffffffffffffffffffffffffffffffff1681526020019081526020016000206000018054610bcf906115d5565b80601f0160208091040260200160405190810160405280929190818152602001828054610bfb906115d5565b8015610c485780601f10610c1d57610100808354040283529160200191610c48565b820191906000526020600020905b815481529060010190602001808311610c2b57829003601f168201915b50505050509050600060405180608001604052803373ffffffffffffffffffffffffffffffffffffffff168152602001838152602001868152602001428152509050600381908060018154018082558091505060019003906000526020600020906004020160009091909190915060008201518160000160006101000a81548173ffffffffffffffffffffffffffffffffffffffff021916908373ffffffffffffffffffffffffffffffffffffffff1602179055506020820151816001019080519060200190610d19929190610f22565b506040820151816002019080519060200190610d36929190610f22565b50606082015181600301555050603260005411610f1b5742610384600260003373ffffffffffffffffffffffffffffffffffffffff1673ffffffffffffffffffffffffffffffffffffffff16815260200190815260200160002054610d9b91906114f5565b10610ddb576040517f08c379a0000000000000000000000000000000000000000000000000000000008152600401610dd2906113b1565b60405180910390fd5b42600260003373ffffffffffffffffffffffffffffffffffffffff1673ffffffffffffffffffffffffffffffffffffffff168152602001908152602001600020819055506000655af3107a40009050478110610e6c576040517f08c379a0000000000000000000000000000000000000000000000000000000008152600401610e6390611371565b60405180910390fd5b60003373ffffffffffffffffffffffffffffffffffffffff1682604051610e92906112ff565b60006040518083038185875af1925050503d8060008114610ecf576040519150601f19603f3d011682016040523d82523d6000602084013e610ed4565b606091505b5050905080610f18576040517f08c379a0000000000000000000000000000000000000000000000000000000008152600401610f0f90611351565b60405180910390fd5b50505b5050505050565b828054610f2e906115d5565b90600052602060002090601f016020900481019282610f505760008555610f97565b82601f10610f6957805160ff1916838001178555610f97565b82800160010185558215610f97579182015b82811115610f96578251825591602001919060010190610f7b565b5b509050610fa49190610fc2565b5090565b604051806040016040528060608152602001600081525090565b5b80821115610fdb576000816000905550600101610fc3565b5090565b6000610ff2610fed84611453565b61142e565b90508281526020810184848401111561100a57600080fd5b611015848285611593565b509392505050565b600082601f83011261102e57600080fd5b813561103e848260208601610fdf565b91505092915050565b60006020828403121561105957600080fd5b600082013567ffffffffffffffff81111561107357600080fd5b61107f8482850161101d565b91505092915050565b60006110948383611277565b905092915050565b6110a58161154b565b82525050565b60006110b682611494565b6110c081856114b7565b9350836020820285016110d285611484565b8060005b8581101561110e57848403895281516110ef8582611088565b94506110fa836114aa565b925060208a019950506001810190506110d6565b50829750879550505050505092915050565b6111298161155d565b82525050565b600061113a8261149f565b61114481856114d3565b93506111548185602086016115a2565b61115d816116c5565b840191505092915050565b6000611175601e836114e4565b9150611180826116d6565b602082019050919050565b6000611198601c836114e4565b91506111a3826116ff565b602082019050919050565b60006111bb6015836114e4565b91506111c682611728565b602082019050919050565b60006111de6011836114e4565b91506111e982611751565b602082019050919050565b6000611201601e836114e4565b915061120c8261177a565b602082019050919050565b60006112246000836114c8565b915061122f826117a3565b600082019050919050565b60006040830160008301518482036000860152611257828261112f565b915050602083015161126c60208601826112e1565b508091505092915050565b600060808301600083015161128f600086018261109c565b50602083015184820360208601526112a7828261112f565b915050604083015184820360408601526112c1828261112f565b91505060608301516112d660608601826112e1565b508091505092915050565b6112ea81611589565b82525050565b6112f981611589565b82525050565b600061130a82611217565b9150819050919050565b6000602082019050818103600083015261132e81846110ab565b905092915050565b600060208201905061134b6000830184611120565b92915050565b6000602082019050818103600083015261136a81611168565b9050919050565b6000602082019050818103600083015261138a8161118b565b9050919050565b600060208201905081810360008301526113aa816111ae565b9050919050565b600060208201905081810360008301526113ca816111d1565b9050919050565b600060208201905081810360008301526113ea816111f4565b9050919050565b6000602082019050818103600083015261140b818461123a565b905092915050565b600060208201905061142860008301846112f0565b92915050565b6000611438611449565b90506114448282611607565b919050565b6000604051905090565b600067ffffffffffffffff82111561146e5761146d611696565b5b611477826116c5565b9050602081019050919050565b6000819050602082019050919050565b600081519050919050565b600081519050919050565b6000602082019050919050565b600082825260208201905092915050565b600081905092915050565b600082825260208201905092915050565b600082825260208201905092915050565b600061150082611589565b915061150b83611589565b9250827fffffffffffffffffffffffffffffffffffffffffffffffffffffffffffffffff038211156115405761153f611638565b5b828201905092915050565b600061155682611569565b9050919050565b60008115159050919050565b600073ffffffffffffffffffffffffffffffffffffffff82169050919050565b6000819050919050565b82818337600083830152505050565b60005b838110156115c05780820151818401526020810190506115a5565b838111156115cf576000848401525b50505050565b600060028204905060018216806115ed57607f821691505b6020821081141561160157611600611667565b5b50919050565b611610826116c5565b810181811067ffffffffffffffff8211171561162f5761162e611696565b5b80604052505050565b7f4e487b7100000000000000000000000000000000000000000000000000000000600052601160045260246000fd5b7f4e487b7100000000000000000000000000000000000000000000000000000000600052602260045260246000fd5b7f4e487b7100000000000000000000000000000000000000000000000000000000600052604160045260246000fd5b6000601f19601f8301169050919050565b7f4661696c656420746f207769746864726177207072697a652066756e64730000600082015250565b7f556e73756666696369656e742066756e647320666f72207072697a6500000000600082015250565b7f6572726f723a204e6f7420617574686f72697a65640000000000000000000000600082015250565b7f546f6f206d616e79207265717565737473000000000000000000000000000000600082015250565b7f6572726f723a205573657220616c726561647920726567697374657265640000600082015250565b5056fea2646970667358221220a589e1ebb5a9bc61618eec69f4cfc51021abd890b4409189f1404e8efbd0ce3964736f6c63430008040033",
  "linkReferences": {},
  "deployedLinkReferences": {}
}